:020000041000EA
:10000000002008205D0100101301001015010010F0
:100010001101001011010010110100101101001058
:100020001101001011010010110100101701001042
:100030001101001011010010190100101B01001026
:100040001D0100101D0100101D0100101D010010F8
:100050001D0100101D0100101D0100101D010010E8
:100060001D0100101D0100101D0100101D010010D8
:100070001D0100101D0100101D0100101D010010C8
:100080001D0100101D0100101D0100101D010010B8
:100090001D0100101D0100101D0100101D010010A8
:1000A0001D0100101D0100101D0100101D01001098
:1000B0001D0100101D0100101D0100101D01001088
:1000C0001D0100101D0100101D0100101D01001078
:1000D0001D0100101D0100101D0100101D01001068
:1000E0001D0100101D0100101D0100101D01001058
:1000F0001D0100101D0100101D0100101D01001048
:100100001D0100101D0100101D0100101D01001037
:1001100000BE00BE00BE00BE00BE00BEEFF3058004
:10012000103800BEF2EB8871AC760010CC7600106F
:10013000A801001090A31AE7D3DEFFFF42012110AF
:10014000FF010000C0860000793512AB4FF00000BF
:100150002049086006C881F3088810474FF05040D6
:10016000006810B14FF00000F2E70FA40ECC002998
:1001700002D000F015F8F9E71749184A002000E00E
:1001800001C19142FCD1002080F30A8814498847BC
:10019000144988471449884700BEFDE701C901C2D8
:1001A0009A42FBD3704700BFCC76001010010020AC
:1001B0003C120020F88700100000082000000820F2
:1001C000F887001000100820001008200000000030
:1001D0007047000008ED00E03C120020E41F002002
:1001E000F930001051030010B9300010F8B500BF0D
:1001F00010B5054C237833B9044B13B1044800E023
:1002000000BF0123237010BDC813002000000000B0
:100210003068001008B5034B1BB10349034800E0E8
:1002200000BF08BD00000000CC13002030680010A3
:1002300070B584B04FF47A7001F040F900268DF863
:100240000F60414D0124009423460DF10F02282137
:10025000284606F059F90096234603AA2821284685
:1002600006F05EF99DF80C30A02B07D0374803F05C
:1002700089F841F2883001F021F9F7E73F268DF83F
:10028000086040238DF809302F4D0124009402238B
:1002900002AA2821284606F037F98DF808608DF863
:1002A00009400094022302AA2821284606F02CF9CE
:1002B0003E238DF8083000268DF809600094022353
:1002C00002AA2821284606F01FF9322001F0F6F88C
:1002D00041238DF8083024238DF80930009402233F
:1002E00002AA2821284606F00FF942238DF808308B
:1002F0008DF809600094022302AA2821284606F0FE
:1003000003F93B238DF8083008238DF80930009459
:10031000022302AA2821284606F0F6F81E2001F042
:10032000CDF83D238DF808300C238DF8093000946A
:10033000022302AA2821284606F0E6F8642001F0EC
:10034000BDF804B070BD00BF2C1200203068001052
:100350002DE9F04F97B002F0E3FFD149D14806F004
:100360009DF80321062000F0B1F90321072000F0D9
:10037000ADF900220121062000F0C4F9002201217C
:10038000072000F0BFF9FFF753FF0E238DF84F3021
:1003900014238DF847302E238DF83F3028238DF815
:1003A0003730C04D0126009633460DF13702282123
:1003B000284606F0A9F80027009706230EAA282150
:1003C000284606F0ADF89DF839301B021BB29DF8A7
:1003D00038009DF83B904FEA09290FFA89F99DF8FA
:1003E0003A2049EA02099DF83D804FEA08280FFAB1
:1003F00088F89DF83C2048EA0208184301F0E4FC24
:100400000022A94B01F084FC01F0D0FC04464846D0
:1004100001F0DAFC0022A44B01F07AFC01F0C6FCEA
:100420000590404601F0D0FC00229F4B01F070FC8B
:1004300001F0BCFC8046009633460DF13F022821B6
:10044000284606F061F80097062310AA28212846BE
:1004500006F066F89DF841301B021BB29DF8400083
:100460009DF843A04FEA0A2A0FFA8AFA9DF8422023
:100470004AEA020A9DF845904FEA09290FFA89F9DC
:100480009DF8442049EA0209184301F09DFC00222E
:10049000854B01F03DFC01F089FC0690504601F0CF
:1004A00093FC0022804B01F033FC01F07FFC0790AD
:1004B000484601F089FC00227B4B01F029FC01F049
:1004C00075FC0890009633460DF14F02282128460E
:1004D00006F01AF80097062314AA2821284606F0E9
:1004E0001FF89DF851301B021BB29DF850009DF87B
:1004F00053A04FEA0A2A0FFA8AFA9DF852204AEAD4
:10050000020A9DF855904FEA09290FFA89F99DF8DA
:10051000542049EA0209184301F056FC0022634BBB
:1005200001F0D0FB01F042FC0990504601F04CFC78
:1005300000225E4B01F0C6FB01F038FC83464846C2
:1005400001F042FC0022594B01F0BCFB01F02EFCF3
:100550008246009633460DF147022821284605F0D1
:10056000D3FF0097062312AA2821284605F0D8FFBA
:100570009DF849301B021BB29DF848009DF84B5076
:100580002D022DB29DF84A2015439DF84D6036028C
:1005900036B29DF84C201643184301F015FC00229A
:1005A000434B01F0B5FB01F001FC0746284601F082
:1005B0000BFC00223E4B01F0ABFB01F0F7FB0546C4
:1005C000304601F001FC0022394B01F0A1FB01F0A3
:1005D000EDFB0646374802F0D5FE204606F0ACF8A3
:1005E000CDE90A01344C404606F0A6F8CDE90201F7
:1005F000059806F0A1F8CDE90001DDE90A232046BF
:1006000002F0C0FE2D4802F0BDFE069806F094F8F8
:1006100080468946089806F08FF8CDE902010798D0
:1006200006F08AF8CDE9000142464B46204602F02A
:10063000A9FE234802F0A6FE099806F07DF8804640
:100640008946504606F078F8CDE90201584606F092
:1006500073F8CDE9000142464B46204602F092FE77
:10066000184802F08FFE384606F066F88046894644
:10067000304606F061F8CDE90201284606F05CF844
:10068000CDE9000142464B46204602F07BFE0E4873
:1006900002F04AFE4FF4FA7000F010FF81E600BF4E
:1006A000801A06002C120020000059400000B03FC4
:1006B00000208C40586800106068001084680010AA
:1006C0008C68001094680010806800100C4B03EBDD
:1006D000800253F8203083F0400303F0C00302F59A
:1006E000805CCCF80030C00000F1804000F5203084
:1006F000416002F540524FF480731360704700BFB1
:100700000480034010B40C4C04EB800C79B1082336
:100710007AB10422134354F82020534003F00C0311
:100720000CF5805CCCF800305DF8044B704700237A
:10073000EEE70022EEE700BF048003400FB400B5EF
:1007400083B0049C074802F0EFFD3CB105A901917C
:10075000204602F0F9FD044802F0E6FD012002F017
:10076000A9FC00BF9C68001080680010EFF31080A7
:1007700072B6064BD3E8CF1F01220029FAD1C3E895
:10078000412F0029F6D1BFF35F8F7047D3160020A9
:100790000023034AC2E88F3F80F31088704700BFF0
:1007A000D316002070B505460C461646FFF7DEFF4F
:1007B000E208A95C04F0070C012303FA0CF31942C8
:1007C00005D1DBB20B43AB54FFF7E2FF70BD21460E
:1007D0003046FFF7B3FFF8B506460D4614461F46F0
:1007E000FFF7C4FF00E00134BC420ED8E20806EB7C
:1007F000D40CB35C04F0070101228A401342F2D109
:10080000D2B21A438CF8002001E04FF0FF34FFF71A
:10081000BFFF002C01DB2046F8BD002DFBD0069861
:10082000FFF78CFF054A1078431CDBB21370172BBF
:1008300002D9134610221A70704700BF8811002099
:1008400000B583B00146054B00931F2318220448CE
:10085000FFF7C1FF03B05DF804FB00BFAC680010F8
:10086000201B00204FF0E022936843F00053936078
:1008700070470000002305E0044A1A440021C2E842
:100880008F1F01331F2BF7D9704700BFC8160020F8
:10089000064B9B68103043F82010BFF35F8F002396
:1008A0000349C1E88F3F82F31088704700ED00E0F4
:1008B000D11600200048704700E400E008B5FFF7BB
:1008C000F9FF002304E04FF0803240F8042B01339D
:1008D0000C2BF8D908BD000008B5091A081F01F251
:1008E000FC7140F6FE73994207D810F0010F04D155
:1008F000C0F34A0040F4604008BD034B034A40F295
:100900000111034802F0DCFBC8680010C46A001043
:10091000F86800104209064B53F8222000F01F002F
:10092000012303FA00F0024214BF1846002070476A
:1009300000E100E03AB1064B00F1600243F82210FA
:1009400043F8201070472030014B43F820107047C7
:1009500000E100E008B50A4600F01F0301219940BC
:100960004009FFF7E7FF08BD00F01F02400901231F
:1009700093404030014A42F82030704700E100E0E7
:10098000024B9B68103053F82000704700ED00E0E8
:1009900008B5FFF7F5FF28B1044A831A2F2B03D8B7
:1009A000012008BD0020FCE70020FAE78C110020A0
:1009B00070B505460C46EFF3108672B60F4BD3E8C0
:1009C000CF1F01220029FAD1C3E8412F0029F6D117
:1009D000BFF35F8FFFF7D4FF094B984201D0A042CD
:1009E00005D1324621462846FFF752FF70BD054B20
:1009F000054AE121054802F063FB00BFD116002043
:100A00001D0100102C690010F86A0010F868001031
:100A10002DE9F04F87B000911546EFF3108A72B6BA
:100A2000864BD3E8CF1F01220029FAD1C3E8412F1A
:100A30000029F6D1BFF35F8F814B93F90040002C62
:100A400044DB804604EB44077E4B03EB870797F9B2
:100A500006107B4A11707C4A926800F1100152F82E
:100A60002190A9EB03022F2A3ED9784B994534D126
:100A70004FF42143ADF80C304FEA440904EB440035
:100A8000704E06EB800072490230FFF725FFADF88B
:100A90000E004BF60153ADF81030FF238DF81230E5
:100AA0008DF81350009B05934C4406EB840406AB71
:100AB00013E9070084E8070047F001095246494658
:100AC0004046FFF7E5FE07B0BDE8F08F614B624A94
:100AD00040F26D11614802F0F3FA614B5E4A4FF447
:100AE000BA715E4802F0ECFA29F0010BABEB03039C
:100AF0005C4AA2FB0312D20802EB4202B3EB820F64
:100B00000FD15B460026DA79AA4212D993F9062062
:100B1000002A0DDB02EB42021E464A4B03EB820326
:100B2000F1E7514B4C4A40F285114C4802F0C8FAAB
:100B30001E46002E48D044F60103ADF80C304FF4A9
:100B40008F43ADF80E3096F906B0BBF1000F1ADAFC
:100B50004BF60150ADF810008DF812B08DF813501F
:100B6000009B05933946301DFFF7B6FEB080B47187
:100B700004EB4404334B03EB840406AB13E9070096
:100B800084E807009AE704EB44002E4B03EB800057
:100B90000430311DB388DA0A1C2A08D15B050DD454
:100BA0005B15023301EB4301FFF796FED2E72F4BB3
:100BB0002F4A40F20F11294802F082FA03F5FF1381
:100BC00003F5FF531F33EBE74FF42143ADF80C302F
:100BD0006300019304EB4406DFF8689009EB860696
:100BE0001B49B01CFFF778FEADF80E005946301DCA
:100BF000FFF772FEADF810004AF6AA235A4649469E
:100C0000521A524153431B0D8DF812308DF8135078
:100C1000009A0592019B1C4409EB840906AB13E979
:100C2000070089E8070044F60103ABF800304FF4F1
:100C30008F43ABF8023047F001093FE7D11600209F
:100C4000DC1F00208C11002000ED00E01D010010D1
:100C5000BC11002064690010E06A0010F868001000
:100C60008C690010ABAAAAAAB4690010386A0010F7
:100C7000D06A001038B540F0010E344BAEEB0303E0
:100C80002F2B31D8EFF30581C9B2002933D0EFF310
:100C9000108472B62E4BD3E8CF5F0122002DFAD11B
:100CA000C3E8452F002DF6D1BFF35F8F4AF6AA2384
:100CB0000246264D521B524153431B0D4FFA83FCF3
:100CC000244B9B6853F8213073451BD00023032B22
:100CD00034D803EB43021D4901EB820292F906204E
:100CE000624520D00133F2E71B4B1C4A40F26E21D3
:100CF0001B4802F0E5F91B4B184A40F271211848D5
:100D000002F0DEF9134B9B68174A43F82120174B7A
:100D10001A78827183F800C000230D4AC2E88F3F21
:100D200084F3108838BD0A4603EB430102EB8101CE
:100D3000FF258D714BF601528A80E8E70C4B074A7C
:100D400040F28221064802F0BBF900BF8C1100205E
:100D5000D116002000ED00E0506A0010A86A0010D3
:100D6000F8680010786A00101D010010DC1F0020D8
:100D7000846A001000B583B00146074B0093052339
:100D800000220648FFF727FD002801DBC0F13300F1
:100D900003B05DF804FB00BF8C6A0010E01F002068
:100DA000014B0B4403607047C816002010B5044681
:100DB000FFF738FD01462046FFF7F2FFFF232371BE
:100DC000BFF35F8F10BD10B50446FFF72BFD014642
:100DD0002046FFF7E5FFFF23237100236371BFF374
:100DE0005F8F10BD10B50D4C09E00D4B0D4A1A2157
:100DF0000D4802F065F92046FFF7D8FF08340B4B89
:100E00009C4209D22368002BF5D0012BEDD120465E
:100E1000FFF7D9FF0834F2E710BD00BF34120020FD
:100E2000146B0010DC6B0010346B00103C120020BF
:100E3000024B0B440360BFF35F8F7047C81600205E
:100E400010B504460120FFF7FBFC01462046FFF7E2
:100E5000EFFF10BD41EA0040704700000D4B1A68DB
:100E6000EFF3108172B6D2E8CFCF0120BCF1000FB2
:100E7000F9D1C2E84C0FBCF1000FF4D1BFF35F8F82
:100E80001A680023C2E88F3F81F3108840BF00201A
:100E900000217047BC1F00202DE9F04F85B0EFF313
:100EA0000587FFB2103FBB0815D0964D07F003072A
:100EB000944B9D4214BF0023012307EB8303924A06
:100EC00052F823402378BB4207D10122BA4005F5EE
:100ED00041535A602EE18D4DE8E78D4B8D4A9221AA
:100EE0008D4802F0EDF8D4F814A006EB46084FEA5E
:100EF000C80B0AEBC808D8F808300193D8F80C9052
:100F0000284600F0A7FB019BC01A61EB0903002BE8
:100F1000C0F21881B9F1000F65DBD8F810301A461D
:100F200002937E4B9A4232D0B8F8021089B2B4F9DB
:100F30000800FFF78FFFD8F81410029B9847029023
:100F40000391029A039B52EA03014CD0002B2BDA47
:100F50000199881A69EB0309C8F80800C8F80C90D1
:100F60003AF90B30002BC0F2ED80D4F8148003EB7B
:100F7000430208EBC2029168D268411A69EB02028F
:100F8000002AC0F2DF80A6462EF8083F16E0D8F807
:100F90001420136902921046984720B3029A1368EE
:100FA000029353680393CCE7284600F053FB029B5F
:100FB0001818039B43EB0109CEE79E46BEF900C01B
:100FC000BCF1000F0ADB0CEB4C0308EBC303996880
:100FD000DA68411A69EB0202002AEEDA2AF80BC03D
:100FE000AEF80060AEE03AF90B3023812369EFF3ED
:100FF000108272B6D3E8CF0F01210028FAD1C3E8DE
:10100000401F0028F6D1BFF35F8FB4F902302AF8F1
:101010000B30668021690023C1E88F3F82F310887E
:1010200090E02369EFF3108272B6D3E8CF0F01216D
:101030000028FAD1C3E8401F0028F6D1BFF35F8F24
:10104000B4F804900FFA89F94FF6FF73A380216971
:101050000023C1E88F3F82F3108816E01E46B6F9E0
:101060000020002A0BDB02EB42030EEBC30398685F
:10107000D968BCEB000068EB01010029EEDAA6F8A4
:1010800000903EF90A902EF80A20B9F1000F5EDBBD
:10109000D4F814E009EB49034FEAC30A0EEBC3038B
:1010A000D3F808C0D3F80C8004F10806D7E7002372
:1010B000A37104F1080EB4F9083011E04FF0FF38C5
:1010C0004FF0FF39C0E90289B4F90800984206D010
:1010D000AEF80020B4F9080021F80C002381134673
:1010E000B3F1FF3F36D0616903EB43024FEAC20C14
:1010F00001EBC20031F93220468816F4004FDDD1F1
:101100008646ECE700800B40941F002000000B4057
:10111000F06B0010D86C00101C6C0010990E0010C1
:10112000284600F097FA361A68EB0101012E71F19A
:1011300000032DDA0123BB40EB63B4F90860002EF5
:10114000BFF6D1AEA38813F4004F3FF46AAFA37982
:10115000002BACD1B4F90830002B19DB626903EB2A
:10116000430302EBC3039E68D3F80C80B8F1FF3F42
:1011700008BFB6F1FF3FD3D0AA6AB11A3B1D55F89C
:1011800023309B1A9942CBD23B1D45F82360C7E719
:1011900040BF05B0BDE8F08F2DE9F0410446884618
:1011A00017461E46C160FFF73DFB204B03442361F9
:1011B0002770B3B263814FF05042127862704FF6DD
:1011C000FF722281A280013B63804FF0000C08E097
:1011D0000CF1FF3560690CEB4C0E20F83E500CF121
:1011E000010CB445F4D3124B98450CBF01230023E6
:1011F00007EB83030F4A42F8234014D000243C44F9
:10120000012505FA07F7C8F820700B492046FFF7BB
:10121000CFFB29462046FFF79DFB08F50158C8F88B
:101220000070BDE8F0810424E9E700BFC816002083
:1012300000800B40941F0020990E001008B5054B4C
:101240001B690BB1034808BD034B044A65210448E0
:1012500001F036FFD41100204C6C0010C06C00105F
:101260001C6C0010F8B504469E460169EFF3108C23
:1012700072B6D1E8CF5F0120002DFAD1C1E8450F49
:10128000002DF6D1BFF35F8FB4F90250666905EB0C
:101290004500C70006EBC000002D01DBF15F618057
:1012A00000212369C3E88F1F8CF310888D4233DB44
:1012B00006990161079941618260C0F80CE041889C
:1012C00089B20131C1F30E0101B9012141802846E3
:1012D000FFF7C0FD2369EFF3108272B6D3E8CFCFDA
:1012E0000121BCF1000FF9D1C3E84C1FBCF1000F84
:1012F000F4D1BFF35F8FA388F353A5802169002346
:10130000C1E88F3F82F31088E368217801228A4088
:1013100003F501535A60F8BD4FF0FF30FBE770B59D
:1013200082B0064615461C469DF8203033B900F0C1
:10133000A7F9854264EB010100290ADB079B0193B1
:10134000069B00932A4623463046FFF78BFF02B0E8
:1013500070BD0020FBE703464089B0EB214F31DD33
:1013600010B50A14586902EB420200EBC202186978
:10137000EFF3108C72B6D0E8CF4F5FF0010E002C67
:10138000F9D1C0E844EF002CF5D1BFF35F8F50884E
:1013900080B289B288420FD0002019690022C1E8CA
:1013A0008F2F8CF3108830B1DA681B7801219940B7
:1013B00002F50153596010BD40F4004050800120F7
:1013C0009871EAE70020704740787047F0B585B023
:1013D000EFF30583DBB2CBB905460F46861F41F11B
:1013E000FF34B04271EB040301D20026344600F012
:1013F00047F9301A64EB0101012871F1000308DAA2
:101400002846394600F044F905B0F0BD1E48FFF704
:1014100095F9FFF713FF0023029301931B4B0093F1
:1014200032462346FFF77BFF00281EDAE8E7002359
:1014300000E00023002BE3D1154B1A68EFF3108175
:1014400072B6D2E8CFCF0120BCF1000FF9D1C2E8CB
:101450004C0FBCF1000FF4D1BFF35F8F1A6800236B
:10146000C2E88F3F81F3108820BF0A4B5B6A9C4221
:10147000DFD80849896AB14203D29C42D7D0012300
:10148000D8E70123D6E700BF706C00105D0E001096
:10149000BC1F002000000B4038B504460D4600F08C
:1014A000EFF8201845EB0101002902DBFFF78EFF62
:1014B00038BD4FF0FF306FF00041F7E708B5C30EBD
:1014C0004101091A63F100039B0043EA917389000B
:1014D000091843F10003DB00C80043EA5171FFF72C
:1014E000DBFF08BD70B584B005460C46EFF30583FD
:1014F000DBB293B13D4B5B6A8B4209D33B4A926AA4
:10150000824208D28B4201D0012002E0002000E09C
:10151000002004B070BD0120FBE7FFF78FFE0346FB
:10152000C0681A78816A6E1A043250F822305B1A49
:101530009E4212D320BF2D4B5B6A9C4209D82B4A96
:10154000926A954207D99C4201D00120E1E7002030
:10155000DFE70020DDE70120DBE7FFF76FFE002378
:1015600002930193224B00932A462346FFF7D7FEAE
:10157000061E0BDD1D4B5B6A9C421BD81B4A926A00
:1015800095422BD99C4213D0012314E0174B5B6A80
:101590009C4209D8154A926A954207D99C4201D0CB
:1015A0000120B6E70020B4E70020B2E70120B0E751
:1015B000002300E0002303B920BFFFF73FFE3146C0
:1015C000FFF7C9FE094B5B6A9C420BD8074A926A37
:1015D000954209D99C4203D001209AE70123EAE70A
:1015E000002096E7002094E7012092E700000B40DE
:1015F0005D0E00100048704700000B4010B50A4B0C
:101600001B6923B10A210948FFF7CAFB10BDFFF788
:10161000F1FF0446032100F00BF8102303222146BA
:101620000148FFF7B9FDEDE7D4110020BC1F0020F1
:1016300010B5054A054C064BA04214BF1846581C6D
:10164000FFF7B0F810BD00BFF06C001000800B4039
:10165000241B00200246436A906A1946536A994245
:10166000FAD17047416A00E0416A9942FCD300E038
:10167000416A994202D1816A9142F9D370470000D0
:1016800008B50248FFF7E6FF08BD00BF00000B40A9
:1016900008B502460B460248FFF7E4FF08BD00BF4D
:1016A00000000B4070B5049D00EB400C4FEA8C0C21
:1016B0000CF1804C0CF5803CDCF80440AC4201D2CB
:1016C000CCF80450A0F1040E5FFA8EFEBEF1010FBB
:1016D00027D90CF540544FF4006626601D4C54F891
:1016E00020603EB16469B4FBF6F4013404EB4404B9
:1016F000033CFDD2DCF8004084EA421202F0E00232
:101700000CF580542260BEF1010F16D90CF5005281
:101710004FF400611160CCF804500E4A42F82030BA
:1017200070BD0129D5D10CF5405403262660DCF8A4
:10173000084014F0010FFAD0DCE7DCF800204A4042
:1017400002F003022260DCF8084001228A401442C1
:10175000F9D0DBE7281B002010B582B04FF48034AD
:101760000094FFF79FFF02B010BD0000014B53F83B
:1017700020007047281B002070B5049C344DB5FB39
:10178000F1FC344D1544344EB54237D8B2FBFCF56C
:10179000A5F1100EBEF5987F36D803F1FF3EBEF1DD
:1017A000060F37D804F1FF3EBEF1060F32D8BCEB6E
:1017B000121F35D8240344EA03440368002B35DBA9
:1017C000264B984242D00E2301229A40244B1A60A5
:1017D00003F580531A60234B9B6832EA0303FAD166
:1017E0000160856000F540520432212313600368D4
:1017F000002BFCDAC4600823136070BD1A4B1B4A2F
:1018000011211B4801F05CFC1A4B184A1921184899
:1018100001F056FC184B154A1C21154801F050FCEC
:10182000164B124A2321124801F04AFC036803F0C8
:101830003F038B42C4D18368C3F30B03AB42BFD1D8
:10184000C36803F4EE23A342BAD1D6E70F23BBE764
:10185000001BB70080E84BD380F8A9320080054018
:101860000020024000000240146D00101C6E0010A9
:10187000646D0010986D0010B46D0010006E0010C3
:10188000024B1A68024B5A60704700BF841F002049
:1018900000800D4008B5164B4FF080421A60A3F54A
:1018A0004123144A9A6051B103F540234FF0E0629E
:1018B0001A6048B9104B4FF000421A6008BD0C4B3B
:1018C0004FF0E0621A60F4E74FF47A7303FB00F024
:1018D0000A4B1860B0F1807F02D36FF07F421A602C
:1018E000FFF7CEFF044B4FF080421A60E6E700BFDF
:1018F00000B00D40F3FFFF0100A00D40841F002049
:1019000010B50C4B4FF080441C6070B140F00103E7
:1019100009480A4CC4610A4C5C400462416283621B
:1019200000211046FFF7B6FF10BD034B0021D9611F
:10193000F6E700BF00B00D4000800D40D3C007B0F7
:101940002D3FF84F054A00EB400302EB830359603B
:1019500000EB4000800001231350704700801040CE
:101960002DE9F04105460E46174698460023DB8ACE
:10197000002242E800F212F4800F0BD1102144F251
:1019800052209847044643463A4631462846A047E7
:10199000BDE8F081042144F2522098470446F2E762
:1019A00008B50023DB8A002242E800F212F4800F1F
:1019B00002D11021984708BD04219847FBE708B5DC
:1019C000031E06DB41F0200012B141F0300100E0BF
:1019D00001460A460A214FF48170FFF7C1FF00005B
:1019E000034BD3F82838002BFAD0BFF35F8F704732
:1019F00000000E40002207E0054B13449B00BFF39C
:101A00005F8F002119600132072AF5D9704700BFA6
:101A10000382031008B5FFF7EDFF08BD074B4FF435
:101A20002A621A602F22DA6003F50053044A1A6012
:101A3000024B5B68002BFBDA704700BF008004405C
:101A400000B0FA0010B5044602E054F8043B984791
:101A5000014B9C42F9D310BD28680010704700006C
:101A600008B50248FFF7EEFF08BD00BFE8670010A9
:101A7000064B074A1A6003F58053064A1A60064B64
:101A80009A68044B9343FAD1704700BF002002408C
:101A90007F3BEFEFF6FFF30300000240054BDB6CEA
:101AA000B3F5004F00D07047034B4FF48022DA6447
:101AB000F9E700BF00001150002011504FF0E02264
:101AC000D2F8881D034B0B43C2F8883D10EE30045A
:101AD000704700BF03033000054B6FF060421A608F
:101AE000044B9B68DB4333F06043F9D1704700BF80
:101AF000003002400000024008B545F25320FFF7D5
:101B00004FFF03460420984708BD08B545F253200F
:101B1000FFF746FF03460120984708BD08B5FEF7CA
:101B2000A9FE08BD38B5054CA168054D4FF4887273
:101B3000284604F001FDA56038BD00BF00ED00E0BF
:101B40000000002038B50420FFF710FE064DA5FB6D
:101B50000035AD0C002404E02946E0B2FFF7F2FEA8
:101B60000134052CF8DD38BD83DE1B4330B583B06E
:101B7000264B0022C3F88420FFF750FF244B01229C
:101B8000DA63224B5B6C012BFBD1214B03221A63DE
:101B90001E4B9B6B012BFBD10224009405231D4A95
:101BA00001211D48FFF7E8FD052500952B461B4A3E
:101BB00001211B48FFF7E0FD1A4B002221460420BB
:101BC000FFF7CAFD184C2346002201212846FFF7E3
:101BD000C3FD164D2B46002211460820FFF7BCFD21
:101BE0002B46002211460920FFF7B6FD23460022AE
:101BF00011460620FFF7B0FD2346002211460720BC
:101C0000FFF7AAFDFFF79EFF03B030BD00000140C3
:101C100000300140002F685900000540008C8647C5
:101C200000800540001BB70080D1F008006CDC028A
:101C300086B003B451FC0804CDE9020151FC09044B
:101C4000CDE9040151EC0A04CDE9060103BCF047DB
:101C5000BDE800504EEC00C4BDE800504EEC01C49D
:101C6000BDE800504EEC02C400BD000000B5FFF717
:101C7000DFFF02E010FE30F4F8D441EC100443EC36
:101C8000112400EE010410EE010480EE200451EC5A
:101C90001004704700B5FFF7CBFF02E010FE30F4F0
:101CA000F8D441EC100443EC112400EE010410EED2
:101CB000210480EE200451EC3004704700B5FFF79A
:101CC000B7FF02E010FE30F4F8D410B541EC100478
:101CD00043EC112451EC040453EC0524A0FB024C0A
:101CE0005FF0000EE0FB03CEE1FB02CE4CEC2044A3
:101CF0000024E1FB03E444EC30E480EE200451ECEA
:101D00005004BDE81040704700B5FFF791FF02E0B6
:101D100010FE30F4F8D441EC100443EC112451ECE3
:101D20002104A0FB01126FEA820252FB100052FB59
:101D300012F252FB1000A0EBD07C53EC04245CFBAD
:101D400013F153EC1524A1FB022001FB030053EC1B
:101D50004424A2EB000050FB1CF24FEA111312EBDB
:101D6000017043EBE27140EA515020EA915020F0BB
:101D7000070053EC7524A0FB023C53EC752400FBD8
:101D800003CC01FB02CC53EC0424ACEB824C40EAC4
:101D90005C70A0F1010041EC400480EE200451ECA5
:101DA0007004704700B5FFF743FF02E010FE30F407
:101DB000F8D441EC100480EE220410EEB204704717
:101DC00000B5FFF735FF02E010FE30F4F8D440EC28
:101DD000700400EE010410EE210480EE200451ECAA
:101DE0003004704700B5FFF723FF02E010FE30F427
:101DF000F8D440EC600400EE010410EE210480EE03
:101E0000200451EC3004704700B5FFF711FF02E0E9
:101E100010FE30F4F8D441EC800400EE010410EE22
:101E2000010480EE400410EE1304704700B5FFF784
:101E3000FFFE02E010FE30F4F8D441EC800400EE26
:101E4000010410EE010480EE400410EE33047047EC
:101E500000B5FFF7EDFE02E010FE30F4F8D441ECDF
:101E6000100443EC112400EE010410EE3004C0F322
:101E70000070704700B5FFF7DBFE02E010FE30F4A3
:101E8000F8D443EC102441EC110400EE010410EEF0
:101E900030F48CBF01200020704700BF00B5FFF771
:101EA000C7FE02E010FE30F4F8D443EC102441ECFD
:101EB000110400EE010410EE30F42CBF01200020CC
:101EC000704700BF00B5FFF7B3FE02E010FE30F42C
:101ED000F8D441EC100443EC112400EE010410EEA0
:101EE00030F42CBF01200020704700BF00B5FFF781
:101EF0009FFE02E010FE30F4F8D441EC100443ECF5
:101F0000112400EE010410EE30F48CBF01200020FB
:101F1000704700BF704720B108B50A68496890470C
:101F200008BD70470146002007E000EB8000531C0D
:101F30000B60137803EB400030380A681378303BAD
:101F4000DBB2092BF1D970472DE9F04F83B005467C
:101F50000E4693461F46DDF830A00D9CDDF8389004
:101F60000F9B13F0030F19D1A0460192C84509D267
:101F700002F1010B3B4631462020A84708F1010839
:101F80005A46F3E7DDF804B008E0013C02F101082D
:101F90003B4631461AF80400A8474246002CF4D1CB
:101FA0000F9B13F0020F03D1104603B0BDE8F08F72
:101FB000A2EB0B034B45F7D2541C3B463146202085
:101FC000A8472246F4E72DE9F04385B00C9D0D9C0F
:101FD0009DF83890DDF83C80DDF840E0119F129EBE
:101FE00016F0020F21D17FB116F0010F0CD0B9F11C
:101FF000000F02D116F00C0F06D0013F04E04FF0A5
:10200000300C05F804C00134744501D21F2CF6D9F8
:1020100016F0010F09D0BC4207D21F2C05D84FF093
:10202000300C05F804C00134F2E716F0100F17D099
:1020300016F4806F04D11CB1744524D0BC4222D068
:10204000B8F1100F2BD0B8F1100F33D0B8F1020F48
:102050003BD01F2C04D84FF0300C05F804C00134DD
:102060001F2C07D8B9F1000F37D04FF02D0C05F811
:1020700004C001340396029701940095FFF764FFB2
:1020800005B0BDE8F083B4F1010C06D0B8F1100F33
:1020900001D06446D4E7023CD2E76446D0E716F0AC
:1020A000200FD0D11F2CCED84FF0780C05F804C0EB
:1020B0000134CEE716F0200FC8D01F2CC6D84FF041
:1020C000580C05F804C00134C3E71F2CC1D84FF0E9
:1020D000620C05F804C00134BBE716F0040F05D00C
:1020E0004FF02B0C05F804C00134C3E716F0080FBD
:1020F000C0D04FF0200C05F804C00134BAE7F0B5A9
:1021000091B0169C189D1B9E0CB926F0100616F473
:10211000806E16D064B34FF0000E12E00CF1300C5C
:102120005FFA8CFC0EF101070EF1400EEE440EF842
:1021300020CCB4FBF5FCAC421BD31F2F19D8BE46F4
:102140006446B4FBF5FC05FB1C4C5FFA8CFCBCF14F
:10215000090FE3D916F0200F08D04127BC445FFADD
:102160008CFCACF10A0C5FFA8CFCDBE76127F5E72D
:10217000274606961A9C0594199C049403959DF88D
:102180005C400294019708AC0094FFF71CFF11B06B
:10219000F0BD2DE9F04F95B009900A910B929B4646
:1021A0001E9D1F9E229FDDF88C80DDF898A055EAC9
:1021B000060301D12AF0100A1AF480641FD055EAF0
:1021C000060330D000241AE003F13002D2B204F149
:1021D000010904F150030DEB030404F8202C3A46E6
:1021E00043462846314604F09FFABD4276EB080389
:1021F0001BD3B9F11F0F18D84C4605460E463A4678
:1022000043462846314604F08FFAD3B2092BDBD976
:102210001AF0200F05D041221A44D2B20A3AD2B2A3
:10222000D5E76122F8E74FF00009CDF818A0259B0B
:102230000593249B049303979DF880300293CDF877
:1022400004900CAB00935B460B9A0A990998FFF730
:10225000BAFE15B0BDE8F08F2DE9F04F91B00446FD
:102260000D4617461E46DDE91A2310461946FFF7AC
:10227000F3FD002840F0ED804FF0FF32AE4BDDE97A
:102280001A01FFF737FE002840F0E3804FF0FF32DD
:102290006FF48013DDE91A01FFF7F0FD002840F02C
:1022A000D88000220023DDE91A01FFF7E7FD0028AE
:1022B00040F0E2809DED1A7B8DED067B1E9B13F4B2
:1022C00080630D9301D106231C93DDE9062310469C
:1022D0001946CDE9080152EA030100F0D880C3F3A2
:1022E0000A50C3F31303904643F07F5949F4401951
:1022F000A0F2FF30FFF768FD7DA3D3E90023FFF7CD
:10230000E1FC7DA3D3E90023FFF7B4FC82468B46B2
:1023100000228A4B40464946FFF7C0FC78A3D3E928
:102320000023FFF7CFFC02460B4650465946FFF705
:10233000A1FCFFF76DFD8246FFF746FD804689460A
:1023400071A3D3E90023FFF7BDFC00227C4BFFF70C
:1023500091FCFFF75DFD83466DA3D3E90023404662
:102360004946FFF7AFFC804689465846FFF72CFDEB
:1023700069A3D3E90023FFF7A5FC02460B464046BC
:102380004946FFF78BFC8046894602460B46FFF71D
:1023900099FCCDE90A010BF2FF3B00210022CDE9B7
:1023A00008124FEA0B5309930023089342464B4609
:1023B00040464946FFF75EFCCDE90E0142464B46DA
:1023C00000204FF08041FFF769FC804689460022DB
:1023D0005C4BDDE90A01FFF79BFC00225A4BFFF73B
:1023E00049FC02460B46DDE90A01FFF791FC002299
:1023F000564BFFF73FFC02460B46DDE90A01FFF7AB
:1024000087FC02460B4640464946FFF733FC02462E
:102410000B46DDE90E01FFF77BFC00224C4BFFF77A
:1024200029FCDDE90823FFF74DFC80468946CDE90C
:102430000889DDE90623FFF75DFD50B30AF1FF3A95
:102440000022414B40464946FFF762FCCDE90801B6
:102450001FE01E9B04931D9B03931C9B02939DED09
:102460001A7B8DED007B33463A462946204600F024
:1024700003F911B0BDE8F08F9FED297B8DED067B50
:102480001A9B06931B9B03F10043079316E74FF03B
:10249000000A0AF16303C62B27D84FF004081E9BDD
:1024A00013F4006F5FD0DDE9081213460B4313D01D
:1024B0001DA3D3E90023DDE90601FFF707FD00288E
:1024C00000F0B4801AA3D3E90023DDE90601FFF789
:1024D000D5FC002800F0AA801C9B53453ADDA3EBF5
:1024E0000A0A0AF1FF331C9336E04FF00508D6E7DD
:1024F000FB799F501344D33FB3C8608B288AC63FF3
:1025000061436F63A787D23F71A379094F930A4054
:102510001655B5BBB16B0240EF39FAFE422EE63FCD
:1025200000000000000000002D431CEBE2361A3FC3
:102530000000000080842E41FFFFEF7F0000F83F85
:102540000000E03F00002C40000024400000184044
:102550000000F03F00231C931E9B43F480631E93F6
:102560004FF00008C2461D9B984569D2A3EB0809AD
:102570001E9B13F0020B04D0B8F1000F01D04FF0F6
:102580000009BAF1000F07D0DDE90823DDE90601F3
:10259000FFF7BEFBCDE9060100220023DDE91A01A9
:1025A000FFF76CFC00284ED11E9B23F400630493BC
:1025B000CDF80C901C9B02939DED067B8DED007B6E
:1025C00033463A462946204600F056F8B8F1000F47
:1025D0003FF44FAF1E9B13F0200F3CD04FF0450C43
:1025E00000F101093346024629466046A0478AEABF
:1025F000EA72A2EBEA720523059308F1FF33049314
:10260000002303930A2302934FEADA7001900092A9
:1026100033464A4629462046FFF771FDBBF1000FBD
:102620003FF427AF0246DDF874901EE01C9B002BA0
:1026300099D00D9B002B96D01C9B013B1C9392E7DD
:102640004FF0000994E7DDE90601024601F100437D
:10265000CDE90623A8E74FF0650CC1E702F10108B8
:10266000334629462020A0474246D31B4B45F5D38D
:102670001046FEE6000000002DE9F04F2DED028B24
:1026800095B007900A9192469B46DDE92089229DEC
:1026900042464B4640464946FFF7DEFB002835D10F
:1026A0004FF0FF326FF4801340464946FFF7E6FBD8
:1026B00000283AD14FF0FF329F4B40464946FFF782
:1026C00019FC002840D198A3D3E90023404649468D
:1026D000FFF710FC00284FD195A3D3E90023404613
:1026E0004946FFF7CBFB002846D100220023404695
:1026F0004946FFF7C3FB00284CD100230B93249BD2
:1027000013F4806F00F0B780002456E0249B0393FD
:10271000239B029303230193884B00935B4652460D
:102720000A990798FFF710FC37E1249B0393239B3A
:10273000029304230193824B00935B4652460A990D
:102740000798FFF701FC28E1249B13F004030FD046
:102750007C4A7BB10423249903912399029101932C
:1027600000925B4652460A990798FFF7EDFB14E189
:10277000754AEEE70323EEE7249B0493239B039320
:102780000295CDE900895B4652460A990798FFF702
:1027900063FD02E142464B4600200021FFF77EFA2E
:1027A0008046894601230B93A9E704F150036B444B
:1027B000302203F8202C013D01341F2C01D8092DB3
:1027C000F3D840464946FFF723FB0646FFF7FCFADD
:1027D00002460B4640464946FFF760FA5B4B03EB67
:1027E000C50393ED008B53EC182BFFF76BFA0246F1
:1027F0000B46CDE90823FFF71DFB0746FFF7F6FA66
:1028000002460B46DDE90801FFF748FA02460B468F
:10281000CDE9082300224E4BFFF76CFB68B301376C
:102820003846FFF7E3FA02460B4651EC180BFFF768
:1028300039FB08B1013600276DBB3046FFF7C4FAFB
:1028400002460B4640464946FFF728FA07468846A7
:1028500000223F4BFFF712FB00284CD100223C4BDB
:1028600038464146FFF746FB002844D116F0010FD9
:1028700041D001363FE0062546E70022344BDDE932
:102880000801FFF7FBFA0028D6D117B117F0010FA6
:10289000D2D00137D0E71F2C17D8013D2D4BA3FB19
:1028A0000723DB08194603EB8303A7EB4303621CF2
:1028B000303304F150000DEB000404F8203C092FE4
:1028C00002D90F461446E6E714461F2C0AD86B1EA1
:1028D00045B104F150026A44302102F8201C1D4623
:1028E0000134F2E71F2C06D804F150036B442E226A
:1028F00003F8202C01341F2C31D8174A82FB0632F2
:10290000F317C3EBA2031A4603EB8303A6EB4303BF
:10291000611C303304F150000DEB000404F8203C3E
:102920001646DAB10C46E6E70000000065CDCD4161
:102930000000000065CDCDC1FFFFEF7FC46E001029
:10294000C86E0010BC6E0010B86E0010D06E001083
:102950000000E03FCDCCCCCC676666660C46249B7D
:1029600003F00303012B1DD01F2C09D80B9B002B58
:1029700035D004F150036B442D2203F8202C013490
:10298000249B0393239B029301940CAB00935B461F
:1029900052460A990798FFF7D7FA15B0BDEC028B9B
:1029A000BDE8F08F239BB3B10B9B1BB9249B13F0A5
:1029B0000C0F12D0239B013B2393194606E004F130
:1029C00050036B44302203F8202C01348C42CBD2CC
:1029D0001F2CF4D9C8E72399F8E72399F6E7249B3D
:1029E00013F0040F07D004F150036B442B2203F8BB
:1029F000202C0134C4E7249B13F0080FC0D004F14D
:102A000050036B44202203F8202C0134B8E700BFA8
:102A10002DE9F04F8FB0074616460D9388460029E2
:102A200000F0248300240D9B1878002800F02083F8
:102A3000252809D0651C334622464146B8470D9BE0
:102A400001330D932C46EEE701330D9300250D9BCA
:102A50001978A1F12002102A0AD8DFE802F038091B
:102A6000093D0909090909090933092E090929003C
:102A7000A1F13003DBB2092B33D92A2936D0002348
:102A80000A930D9B1A782E2A40D04FF0000B0D9A16
:102A90001378683B122B77D8DFE803F06476D3769F
:102AA0005676767676767676727676767676D800FE
:102AB00045F0010501330D93C9E745F002050133E7
:102AC0000D93C4E745F0040501330D93BFE745F0CE
:102AD000080501330D93BAE745F0100501330D9356
:102AE000B5E70DA8FFF71EFA0A90CAE7189B1A1D52
:102AF00018921868002804DB0A900D9B01330D938F
:102B0000BFE745F0020543420A93F6E745F48065C6
:102B10005A1C0D925A78A2F13003DBB2092B04D96A
:102B20002A2A07D04FF0000BB1E70DA8FFF7FAF9FA
:102B30008346ACE7189B1A1D18921B6823EAE37BB7
:102B40000D9B01330D93A2E745F48071531C0D9347
:102B500052786C2A01D00D4616E045F440750133D9
:102B60000D9311E045F08001531C0D935278682AB3
:102B700001D00D4608E045F0C00501330D9303E098
:102B800045F4807501320D920D9B1878A0F1250354
:102B9000532B00F26182DFE813F054025F025F0200
:102BA0005F025F025F025F025F025F025F025F021D
:102BB0005F025F025F025F025F025F025F025F020D
:102BC0005F025F025F025F025F025F025F025F02FD
:102BD0005F025F025F025F025F02740154017401D1
:102BE0005F025F025F025F025F025F025F025F02DD
:102BF0005F025F025F025F025F025F025F025F02CD
:102C00005E005F025F025F025F025F025F025F02BF
:102C10005F025F025E009B015E007401540174015B
:102C20005F025E005F025F025F025F025F025E00A2
:102C300039025F025F02D4015F025E005F025F0241
:102C40005E0045F4007501320D929DE745F48075F4
:102C500001320D9298E7782809D058283AD06F2889
:102C60003AD062283AD025F010050A2300E010235C
:102C7000582835D0692803D0642801D025F00C05E8
:102C800015F4806F01D025F0010569282BD0642848
:102C900029D015F4007F40F0968015F4807F40F035
:102CA000AE8015F0400F00F0BF80189A111D1891EA
:102CB000127805950A990491CDF80CB0029300237F
:102CC000019300923346224641463846FFF717FAF1
:102CD000044629E01023CBE70823C9E70223C7E70E
:102CE00045F02005C6E715F4007F21D115F4807F5B
:102CF00042D115F0400F58D0189A111D1891127832
:102D000082EAE271A1EBE27105950A980490CDF890
:102D10000CB00293D20F01920091334622464146F5
:102D20003846FFF7ECF904460D9B01330D937AE624
:102D3000189A073222F0070202F10801189151682F
:102D400012680846002913DB08950A9D0795CDF8FF
:102D500018B0049300230593C90F029100920190CB
:102D60003346224641463846FFF713FA0446DBE76E
:102D7000524261EB4100E7E7189A111D1891126861
:102D800082EAE271A1EBE27105950A980490CDF810
:102D90000CB00293D20F0192009133462246414675
:102DA0003846FFF7ACF90446BEE715F0800F05D0B2
:102DB000189A111D1891B2F90020A1E7189A111D57
:102DC000189112689CE7189A073222F0070202F164
:102DD0000801189108950A990791CDF818B00021BB
:102DE000049305910291D2E90023CDE900233346F3
:102DF000224641463846FFF7CCF9044694E7189A34
:102E0000111D189105950A990491CDF80CB0029303
:102E10000023019313680093334622464146384607
:102E2000FFF76DF904467FE715F0800F04D0189A7C
:102E3000111D189112883CE7189A111D18911268FB
:102E400037E746281AD0189B073323F0070303F10E
:102E50000802189204950A9A0392CDF808B0D3E9B3
:102E60000023CDE900233346224641463846FFF78A
:102E700003FC04460D9B01330D93D4E545F020057A
:102E8000E1E7672801D0472801D145F400654528CE
:102E900001D0472801D145F02005189B073323F0C6
:102EA000070303F10802189204950A9A0392CDF8D9
:102EB00008B0D3E90023CDE900233346224641463A
:102EC0003846FFF7C9F904460D9B01330D93AAE577
:102ED00015F002051FD04FF001091898031D189333
:102EE00004F1010A3346224641460078B847BDB98D
:102EF0000D9B01330D93544695E502F1010A3346CB
:102F000041462020B8474B46524603F101099B45F4
:102F1000F3D81446E1E70123DDF828B02246F4E7B0
:102F20005246DDF828A006E0551C334641462020D5
:102F3000B847A1462A4609F10104CA45F4D8924689
:102F4000D6E7189B1A1D1892D3F800A0BBF1000F0A
:102F50001ED14FF0FF33D14602E009F101091346BB
:102F600099F8002012B15A1E002BF6D1A9EB0A09DC
:102F700015F480630B9302D0D94528BFD94615F0CC
:102F800002030C9306D022465C46B3460B9E1DE01E
:102F90005B46E0E722460A9C4B4607E002F1010946
:102FA000334641462020B8472B464A465D1C9C428A
:102FB000F4D8A9465C46B3460B9E07E01C460AF1CE
:102FC000010A551C5B464146B8472A469AF800005C
:102FD00020B1002EF3D0631E002CEFD114465E46C4
:102FE0000C9B1BB90D9B01330D931CE5DDF828A04C
:102FF00006E0551C334641462020B847A1462A46E4
:1030000009F10104CA45F4D81446EBE745F021055F
:10301000189B1A1D18921B68059508220492CDF87A
:103020000CB01022029200220192009333462246F5
:1030300041463846FFF763F804460D9B01330D9374
:10304000F1E4651C3346224641462520B8470D9BD6
:1030500001330D932C46E6E4651C33462246414677
:10306000B8470D9B01330D932C46DCE4074FD9E4A0
:10307000B44201D3721E00E022463346414600208E
:10308000B84720460FB0BDE8F08F00BF151F0010F5
:1030900000B585B002900391009313464FF0FF32C4
:1030A00002A90348FFF7B4FC05B05DF804FB00BFBC
:1030B000171F001000BEFDE708B5FFF7FBFF00007B
:1030C00000B583B08C46194613465AB1074A5BB126
:1030D0000193009263460246054800F053F901202F
:1030E000FFF7E8FF034AF2E7024BF1E7206F001019
:1030F000306F00102C6F001010B5EFF30583DBB2BA
:1031000003B100BEFEF7ACFC044C02E054F8043BF3
:103110009847034B9C42F9D310BD00BF28680010AC
:103120003068001008B5034608461B6811469847EA
:1031300008BD0000F8B507460D461646437D13B19D
:10314000002420460CE003681146284698472EE0EC
:103150003B7D10E03B68022115489847601C013414
:10316000B44214DA002CF3DD2B1913F8013C0D2BBB
:1031700014BF002301232A5D0A2AF0D1002BEED1CF
:10318000A042E7DA3B68211A28449847E2E7B042B8
:1031900003DA3B68311A28449847002E07DD35448E
:1031A00015F8013C0D2B14BF002301233B75F8BD1E
:1031B000606F001038B50368BBB105460B4B1C6847
:1031C00006E0294651F8042B2046FFF7B3FF246997
:1031D0004CB12368002BFAD0054B1B68002BF0D0B4
:1031E000A342F4D1EDE700232B6038BD781B00200B
:1031F000801B002038B505460C460B68802B05D097
:1032000021684B1C23600C44257138BD0846FFF72C
:10321000D1FFF5E708B5FEF733FA074A821841F106
:103220000003002B03DB054803F0AEFA08BD4FF0A6
:10323000FF326FF00043F6E740420F0034120020E7
:1032400008B5024803F080FA08BD00BF3412002020
:103250002DE9F04383B006460D4690461C46FFF725
:10326000D9FF8146B5F1FF3F04D044B1174F184B49
:103270001C6807E0304603F027FA0546F5E7154FCE
:10328000F5E72469BCB12368002BFAD0124B1B6808
:103290000BB1A342F5D12A4631462046B847B8F1D2
:1032A000000FEED00A238DF8073001220DF107013F
:1032B0002046B847E5E7B9F1000F03D1284603B02F
:1032C000BDE8F083FFF7BCFFF8E700BF3531001021
:1032D000781B002025310010801B0020084A01E0E7
:1032E00003F1100213683BB18342F9D131B903698C
:1032F000136000230361704701B11060704700BF85
:10330000781B002010B5054B1C6801E09847246924
:103310001CB16368002BF9D1F9E710BD781B0020C0
:1033200008B500F08FF908BD38B5054603F0CCF9B3
:10333000044601231A4601462846FFF789FFFFF796
:10334000E1FF204638BD000070B5A2B004460E462D
:10335000FFF760FF0546002301933346224601A98B
:103360000748FFF795FE044601A8FFF723FFFFF784
:10337000C9FF15B9204622B070BDFFF761FFF9E71C
:10338000F53100100FB400B583B004A951F8040B57
:103390000191FFF7D9FF03B05DF804EB04B070476B
:1033A00070470000014B00221A707047DD1F00209B
:1033B0004B79FF2B0BD18B795BB9CB79012B0AD1E0
:1033C000082A0AD98A78064B1A700920704700200B
:1033D000704700207047002070470020704700BFF2
:1033E000DD1F002001207047012923D108B59188F5
:1033F000114B1B78994201D0002008BD5378012B56
:1034000003D0022B0FD00020F7E7518811F4807F02
:1034100006D0480AC1F3402201F07F01FEF7CFFA3F
:103420004FF0FF30F6E7642200210846FEF768FA05
:103430000120E2E701207047DD1F002000487047AF
:10344000846F001001290FD108B594465378012BE1
:103450000CD19388072B01D0002008E0A623044A52
:10346000614601F0BFFB02E001207047002008BD6B
:10347000A86F00100123037000487047646F0010AC
:1034800008B50B68B3F5966F00D008BD0022114651
:103490004FF0FF30FEF793FA024B1860024B1960B1
:1034A000704700BF181B00201C1B002008B5FEF74A
:1034B000E7F80E4A821841F10003002B11DB0C489B
:1034C00003F062F960B100214FF0FF3001F016FA0D
:1034D000002001F013FD0028F5D1054803F034F970
:1034E00008BD4FF0FF326FF00043E8E740420F00A5
:1034F000C01F002008B5024B1878FDF735FA08BD4B
:10350000DE1F002010B584B000212B4803F02CF9F9
:1035100008BB2A4B1B68E3B1284AEFF3108172B64F
:10352000D3E8CF4F0120002CFAD1C3E8440F002C80
:10353000F6D1BFF35F8F51602148037883F0010318
:103540000124047010680022C0E88F2F81F31088D6
:10355000BBB904B010BD00214FF0FF3001F0CEF92F
:10356000002001F0A1FC0446134803F0EDF8002C04
:10357000EFD0144B1B68002BEBD0134A1068984710
:10358000E7E7FDF75BFE0446FEF77AF810F57A727E
:1035900041F10003002B09DB01210291002101917F
:1035A0000A4900912046FDF7BAFED2E74FF0FF32FC
:1035B0006FF00043F0E700BFC01F00208C1F002009
:1035C000DF1F0020181B00201C1B0020D13500101D
:1035D00038B5194B1B68002B24D0174B1968EFF333
:1035E000108272B6D1E8CF4F0120002CFAD1C1E889
:1035F000440F002CF6D1BFF35F8F5A6000210F48B3
:1036000001701B68C3E88F1F82F310880024002517
:103610000B4B1878FDF77EF940B9002400252046B1
:10362000294638BD4FF47A740025F1E7044B187829
:10363000FDF79AF9F3E700BF8C1F0020DF1F002081
:10364000DE1F002010B584B04FF050431C68FDF71A
:10365000F5FDFDF7B9FEA0422BD12C4B1B7802F0F3
:1036600001F92B4B1B6853B30120FDF783FBC0B25C
:10367000284C20702849FDF79BF901212078FDF79F
:1036800069F90E20FDF784F90446E0B10120FDF749
:10369000D7F801462148FDF7CBFB002220490E2038
:1036A000FDF7B6F901211F48FFF718FE204604B0C8
:1036B00010BD1D4B1D4AC1211D48FFF701FD1448D7
:1036C000FDF774FBD0E7154B00221A605A60FDF736
:1036D000B5FD0446FDF7D4FF10F57A7241F1000301
:1036E000002B0DDB01210291002101911149009174
:1036F0002046FDF714FEC443E40F002CD6D0D1E7DA
:103700004FF0FF326FF00043ECE700BFC8760010C7
:10371000C01F0020DE1F0020053500108C1F002078
:10372000F5340010EC11002050700010B47000103F
:1037300058700010D135001008B5002001F094FB3E
:1037400008BD000038B504460D46FFF7F5FF90B3FD
:10375000002001F0A9FB88B3FDF792FF1A4A8218F6
:1037600041F10003002B16DB184803F00DF840B3BD
:10377000FFF7E2FF18B1002001F096FB80B90021AD
:103780004FF0FF3001F0BAF86FF002040F4802F07A
:10379000DBFF204638BD4FF0FF326FF00043E3E718
:1037A0002A462146002001F08DFB04460028EDD179
:1037B0006FF00204EAE76FF00204EAE76FF0020438
:1037C000E7E76FF00204E4E740420F00C01F00206B
:1037D000F8B507460D46FDF753FF2E4A821841F112
:1037E0000003002B04DB2C4802F0CEFF28B9F8BD03
:1037F0004FF0FF326FF00043F5E7FFF79DFF002821
:1038000046D1264B00200021C3E90001224802F0E6
:103810009BFFECE700214FF0FF3001F06FF8002034
:1038200001F06CFBFFF788FF0028EFD0002001F0CB
:10383000F1FBF8B1AC42E9DA2E1B002001F0EAFB03
:10384000864200DC30460028E4D0024639190020C8
:1038500001F0BCFB064600214FF0FF3001F04EF8AE
:10386000002001F04BFB3444FDF70AFF0B4BC3E98A
:103870000001DFE7FDF704FF084A13685268084EAD
:103880009B1942F10002834272EB0103D2D2BDE7E1
:103890000024CFE740420F00C01F0020C0130020CB
:1038A00020A107000048704744710010004870478D
:1038B000F070001010B50446144B1B786BB18CB936
:1038C000134B40F209425A80012301335B001BB2C3
:1038D00043F440730E48038010BD11210B4800F0E3
:1038E00047F8ECE7052C0ED80A4B53F824000023C8
:1038F000122BEAD8C25C002AE7D00133044921F830
:103900001320DBB2F4E70020E6E700BFC81F002069
:10391000501B00205871001000B58BB045F24730A5
:10392000FEF73EF803460122092101A89847042822
:1039300001D100230EE00A4B0A4A29210A48FFF769
:10394000BFFBC3F10F0228326A4412F8241C074A55
:10395000D1540133072BF4DD0BB05DF804FB00BF3D
:1039600070710010DC71001078710010B41F00201D
:1039700008B511B18C4600220AE0114B114A3521DD
:103980001148FFF79DFB00210FE0373383540132CC
:103990000CF1FF3393420FD90F2A0DD853080B496E
:1039A000CB5C12F0010FEED104210B4103F00F03A9
:1039B000092BEADC3033E9E70023835408BD00BF5C
:1039C000B4710010BC71001078710010B41F002099
:1039D00010B5038B3F3323F03F03022919D0144C59
:1039E0002268C2601344236013F03F0F13D182F0AA
:1039F000A04282F4801283F0A04383F48013B3F5D5
:103A0000805F0ED842EA816242F0004243681A6049
:103A100010BD5B00E3E7074B074A51210748FFF75A
:103A20004FFB074B044A53210448FFF749FB00BFF3
:103A3000881F0020F8710010087300102872001011
:103A40007472001070B5034600F07F04600000EB54
:103A5000D310244D05EB40108370DB090CBF01250A
:103A6000002545700025C5700183C276D3B9E100F9
:103A70001D4E0E4403EB44011A4D05EB41118E60BF
:103A800003EB4401174D05EB4111896800250D60DA
:103A90006CB903EB4403134A02EB43135D60134A12
:103AA000DA6070BD124E06EBC4068660E8E76BB9BB
:103AB000611EC9000F4D0D4403EB4403094901EB9E
:103AC00043135D601146FFF783FFEAE7611E0A4D6D
:103AD00005EBC10503EB4403024901EB43135D60B1
:103AE000F0E700BF841B002084001050000110503C
:103AF000800010500C0010500800105008B500F065
:103B00007F035B0003EBD010024B03EB401000F08F
:103B100023F908BD841B002008B520B901210E201F
:103B2000FCF718FF08BD034B034A4FF4D471034858
:103B3000FFF7C6FABC720010F8720010287200106D
:103B400008B528B9002211468020FFF7D7FF08BD2D
:103B5000034B044A4FF4D9710348FFF7B1FA00BF91
:103B6000BC720010E872001028720010024B4FF473
:103B70008032DA64704700BF0020115070B540BB3E
:103B8000064600F0C9F8164C0C23A367FF2215491E
:103B90000E20FCF73DFF40252A460021124802F086
:103BA00041FD002229461046FFF74CFF002229461E
:103BB0008020FFF747FF02F0F7FD012323644FF059
:103BC0000053E364094BC4F890303046FFF7CEFF52
:103BD00070BD074B074A40F275110748FFF770FAAE
:103BE0000000115099030020841B002010D0010018
:103BF000BC7200101C73001028720010044B197066
:103C000021B1044B4FF40032C3F89020704700BF3D
:103C1000DA1F0020002011500B7813F07F0F02D123
:103C20004B78052B00D070474B88DBB2014A1360FC
:103C3000F9E700BF0000115008B558B90B46898854
:103C4000DA7802F00302C1F30A019878FFF7FAFE6E
:103C5000012008BD034B044A40F2EF110348FFF76F
:103C60002FFA00BFBC720010D8720010287200102A
:103C700008B502F099FD08BD10B530B908461146E7
:103C80001A46FFF73BFF012010BD034B034A4FF4D8
:103C9000FE710348FFF714FABC720010C8720010DE
:103CA0002872001008B511F07F0004D1CB090ED1A5
:103CB0000222084B9A66400000EBD1104FF40062DC
:103CC0000021054B03EB401002F086FD08BD0122E8
:103CD000EFE700BF00201150841B002011F07F008F
:103CE00000D1704708B5400000EBD111044800EB4B
:103CF00041100022C2706FF4006102F06DFD08BD3A
:103D0000841B002004E011F8012B00F8012B1A4657
:103D1000531E002AF7D1704708B54FF080530A4A66
:103D2000136002F580521360084B9B6813F0805FAC
:103D3000FAD04FF480520021054802F073FC054B85
:103D400009225A6708BD00BF00200240000002405F
:103D5000000010500000115070B504460D46164684
:103D6000837EABB9A6820023E3820123A37625617B
:103D7000204602F0F1FC20B10B4B4FF40032C3F8A7
:103D80009020204602F020FD50B10123237770BD22
:103D900081780648FFF7F6FA204602F00DFDE1E7CC
:103DA000204602F0F9FCF2E700201150FC730010ED
:103DB00038B50546002409E0D21A1C4B03EB421328
:103DC0008BB1DB68284698470134E4B2184B1B7866
:103DD000591C2246A14215DBA342EDD9154B1B68A5
:103DE00003EB4413ECE740F2162213491348FFF7A4
:103DF000C9FA4FF0E023D3F8F03D13F0010F13D0D0
:103E000000BE11E00E4C54220021204602F00AFCB4
:103E10004FF0FF336360A360E36023612022FF2142
:103E200004F1140002F0FEFB38BD00BF1075001055
:103E3000D91F0020E4130020EC740010447400101B
:103E40003017002008B5FFF7B3FF00F029FF08BDC9
:103E500070B505460C461646486900F02BFF6369AD
:103E6000324601212846984770BD00002DE9F04FE9
:103E700083B08246481EC0B2FFF718FD20B103464A
:103E800042780192022A11D040F2C7326349644855
:103E9000FFF778FA4FF0E023D3F8F03D13F0010F6D
:103EA00000D000BE002003B0BDE8F08FC179C1F39F
:103EB00040145C4A107864F304101070C1F3801150
:103EC000C0B261F34510107003F109085A88134419
:103ED0000093009B984580F09E8098F801300B2B52
:103EE0000BD04FF0010B98F80130042B0BD1009B45
:103EF000A3EB0807BFB2002460E098F803B098F87D
:103F000000309844EFE740F2E23244494448FFF77A
:103F100039FA4FF0E023D3F8F03D13F0010F00D051
:103F200000BE0020BFE7A9EB05053F4B03EB45159D
:103F300050E040F2EB3239493948FFF723FA4FF0AD
:103F4000E023D3F8F03D13F0010F00D000BE0020B5
:103F5000A9E72A69354B9A424BD1DDF804B048E015
:103F600040F20A422D492E48FFF70CFA4FF0E023A9
:103F7000D3F8F03D13F0010F00D000BE002092E70F
:103F80002346324641462A4801F040FDB044294BC1
:103F90001B78013399459CDD40F219421F492048A6
:103FA000FFF7F0F94FF0E023D3F8F03D13F0010FE5
:103FB00000D000BE002076E70134E4B21D4B1D782E
:103FC0006B1CA146A342E2DBA542ACD91A4B1D688B
:103FD00005EB4415002DACD02B693A4641465046BE
:103FE00098470828E8D98742E6D30646BBF1010F77
:103FF000AFD000229345C3D998F802301344DBB206
:10400000084919440979FF29AAD106490B441C71B2
:104010000132D2B2EEE7012045E700BFC0740010C4
:10402000447400103017002010750010B5510010B6
:1040300044170020D91F0020E41300207047704768
:10404000002070470020704738B505460C464B8865
:104050001A0AD8B2531E0E2B64D8DFE803F0082DDD
:104060004E6363592D636363636363632200FFF7E9
:1040700019FC024628B112232146284600F0B2FD61
:1040800051E040F22B422C492C48FFF77BF94FF0CE
:10409000E023D3F8F03D13F0010F00D000BE002064
:1040A00041E0FFF7CBF9024600283DD04388214686
:1040B000284600F097FD36E0022A09D0FFF7C2FF3C
:1040C000024698B353882146284600F08BFD2AE02B
:1040D000FFF7ECFB02460028F4D140F252421649A9
:1040E0001648FFF74FF94FF0E023D3F8F03D13F0F7
:1040F000010F00D000BE002015E0A188FFF7DAFB19
:104100000246A8B103782146284600F06BFD0AE07C
:10411000FFF796FF024668B103782146284600F073
:1041200061FD00E0002038BD0020FCE70020FAE738
:104130000020F8E70020F6E7A8740010447400108F
:104140007047704770477047024B5878003818BF67
:104150000120704730170020024B1878C0F3800010
:10416000704700BF30170020024B1878FF3818BF87
:10417000012070472012002070B50546FFF7F4FFBC
:10418000064608B1304670BD54220021274802F08F
:1041900049FA274B00221A70264C2046FCF706FEEF
:1041A000254B1C60254C04F11400FCF749FE204609
:1041B00001F0DEFF224B1C60224B23B12248FFF7A7
:1041C00059F9224B1860002409E0D21A204B03EB66
:1041D00042138BB15B687BB198470134E4B21A4B50
:1041E0001B78591C2246A14215DBA342EDD9174B7F
:1041F0001B6803EB4413ECE74FF4F17215491648C2
:10420000FFF7C0F84FF0E023D3F8F03D13F0010FB3
:10421000B8D000BEB6E7114B1D702846FFF7AEFCC4
:104220002846FFF779FC0126ACE700BF30170020D5
:10423000DB1F0020E8160020841700200412002055
:104240008817002075340010D91F0020E4130020C7
:10425000107500106C7400104474001020120020BF
:1042600070B51A4B1E788B7813F0700F0ED10C4678
:10427000174B9978204601F059FB0546B0B121460D
:104280003046FFF7D9FC0546284670BD40F2FC4297
:1042900010491148FFF776F84FF0E023D3F8F03DCE
:1042A00013F0010F00D000BE0025EDE740F2FD4203
:1042B00008490948FFF766F84FF0E023D3F8F03DCE
:1042C00013F0010FE0D000BEDEE700BF2012002097
:1042D0003017002078740010447400102DE9F84F56
:1042E00080460C4616461F46DDF82890DDF82CA0C7
:1042F000002526E04FF49B621F492048FFF742F853
:104300004FF0E023D3F8F03D13F0010F00D000BED2
:104310004FF0000B5846BDE8F88F40F2D9421649DD
:104320001648FFF72FF84FF0E023D3F8F03D13F0D5
:10433000010FEFD000BEEDE78AF8003023781C446F
:104340000135AE4214DD6378052BD3D1E17801F05D
:104350000301B942CED121464046FFF781FF834693
:104360000028DAD0A378DA09E6D189F80030E5E749
:104370004FF0010BCEE700BF8874001044740010AA
:1043800008B501F07F00400000EBD1103030044B45
:104390001844044B1968043001F07EFA08BD00BFD0
:1043A000301700208417002008B501F07F0040007E
:1043B00000EBD1103030044B1844044B1968043022
:1043C00001F094FA08BD00BF3017002084170020C8
:1043D00070B51F48007801F07F051E4C04EB450CBA
:1043E0000CEBD11C9CF8344014F0010F1FD1CE0906
:1043F000184C04EB4504344494F834C04CF0010CE0
:1044000084F834C03034FFF737FCF8B923796FF300
:104410000003237123796FF3820323714FF0E023AC
:10442000D3F8F03D13F0010F10D000BE0EE040F2C3
:104430002A5209490948FEF7A5FF4FF0E023D3F8B7
:10444000F03D13F0010F00D000BE002070BD00BF92
:1044500020120020301700205C74001044740010FB
:1044600038B501F07F05CC090A4B1878FFF71AFC24
:10447000094B03EB4503234493F8342042F0020236
:1044800083F8342093F8342042F0010283F834207A
:1044900038BD00BF201200203017002038B501F0D1
:1044A0007F05CC090A4B1878FFF718FC094B03EB82
:1044B0004503234493F834206FF3410283F83420FA
:1044C00093F834206FF3000283F8342038BD00BF26
:1044D000201200203017002001F07F02044B03EB74
:1044E000420303EBD11191F83400C0F34000704750
:1044F000301700202DE9F04182B006460C4600201E
:1045000000F0D8FB237803F06003602B16D0402B1B
:1045100027D0227802F01F02012A00F00681022A29
:1045200000F048813AB34FF0E023D3F8F03D13F0A8
:10453000010F00F0D88100BE00250EE040F2C52238
:10454000AC49AD48FEF71EFF4FF0E023D3F8F03D35
:1045500013F0010F00D000BE0025284602B0BDE8D0
:10456000F081A64800F0A6FB224601213046FEF766
:1045700069FF0546F1E7202B0BD063BB6378092B5D
:1045800000F2C880DFE803F0B3A3C693C6318DC63E
:10459000404DA388DBB20F2B00F29381984A13445D
:1045A0001979984B1B7899420CD2974B1B6803EBF7
:1045B0004111002900F0898122463046FFF748FC6E
:1045C0000546CAE75A1C8A42C0F27D81C91A8F4B40
:1045D00003EB4111EDE74FF0E023D3F8F03D13F08A
:1045E000010F00D000BE0025B7E7204600F068FBB1
:1045F0006188C9B23046FFF7A3FA814A137843F0C5
:10460000020313700125A8E77D4B5B788DF8063017
:1046100001230DF106022146304600F0E3FA0125A0
:104620009BE76588EDB2764B5B78DBB2AB4232D06C
:10463000734B5B785BB9724B5D7055B3294630465E
:10464000FFF714FC054690B1FFF77AFD23E0002147
:104650003046FFF7D3FA3046FFF70AFB684F97F86A
:1046600002803046FFF7A4FB87F80280E3E740F2C0
:10467000153260496048FEF785FE4FF0E023D3F81D
:10468000F03D13F0010F00D000BE5D4B00225A70C8
:1046900063E7FFF756FD2146304600F089FA012511
:1046A0005BE721463046FFF7CFFC054655E76388B8
:1046B000012B01D0002550E7514A137843F008033D
:1046C00013702146304600F073FA012545E76388F0
:1046D000012B01D0002540E7494B1A786FF3C30244
:1046E0001A702146304600F063FA012535E7444B45
:1046F0001B789A08C3F3401302F002021343ADF88B
:10470000063002230DF106022146304600F06AFA17
:10471000012522E74FF0E023D3F8F03D13F0010F1D
:1047200000F0D58000BE002517E7A388DBB20F2B71
:1047300000F2CF80324A13441979324B1B789942E8
:1047400023D2314B1B6803EB4111002900F0C580D7
:1047500022463046FFF77CFB054600287FF4FDAE7D
:10476000237813F0600F7FF4F8AE63780A3B012BD7
:104770003FF6F3AE00F09EFA63780A2B0ED0214686
:10478000304600F015FA0125E7E65A1C8A42C0F2CD
:10479000A280C91A1D4B03EB4111D6E700238DF807
:1047A000063001230DF106022146304600F01AFAC8
:1047B0000125D2E6A288D1B202F07F05C2F3C01073
:1047C00012F0700F24D10E4A02EB45020244127D12
:1047D0000C48007882422BD20B48056805EB421545
:1047E00083B3002D7BD0224629463046FFF730FBAD
:1047F0000546B2E6D474001044740010453400102D
:1048000030170020D91F0020E4130020107500107D
:1048100040F2863235493648FEF7B4FD4FF0E023CA
:10482000D3F8F03D13F0010F00D000BE002594E650
:10483000451C954204DB121A2E4D05EB4215CFE7BD
:104840000025CDE76378012B1AD0032B18D04BB18C
:104850004FF0E023D3F8F03D13F0010F00D000BE7D
:1048600000257AE63046FFF737FEADF80600022352
:104870000DF106022146304600F0B4F901256CE640
:10488000628822B9012B18D03046FFF7E9FD45B305
:10489000224629463046FFF7DBFA002000F00AFAEC
:1048A000154B93F8355015F001057FF456AE2146AF
:1048B000304600F07DF901254FE63046FFF7EEFD6A
:1048C000E5E7002549E6002547E6002545E6002501
:1048D00043E6002541E600253FE600253DE60025AC
:1048E0003BE6012539E6002537E600BFD474001009
:1048F00044740010107500103017002010B584B0FB
:10490000FFF732FC48B904B010BD9DF80400FFF772
:1049100099FA9DF80820874B9A70874B1C6804F120
:1049200014026369EFF3108172B6D3E8CFCF012090
:10493000BCF1000FF9D1C3E84C0FBCF1000FF4D16A
:10494000BFF35F8F516001A9204601F0B9FB616997
:10495000A3690022C1E88F2F83F310880028D2D0EA
:104960009DF80530013B072B00F2DA8001A252F8D6
:1049700023F000BF0B490010954900100D4B0010AB
:10498000D34A0010ED4A0010A3490010394A001024
:10499000FF4A00109DF80400FFF754FAFFF7D1FB1F
:1049A000BBE7664B1B78002B36D0644A1378013B7B
:1049B000DBB213701378002BAFD15E4B1A7842F044
:1049C00001021A7093F834206FF3000283F8342048
:1049D00093F834206FF3820283F8342093F8352063
:1049E0006FF3000283F8352093F835206FF38202CD
:1049F00083F8352002A99DF80400FFF77BFD00280D
:104A00008BD100219DF80400FFF74CF980219DF81F
:104A10000400FFF747F980E740F256224849494829
:104A2000FEF7B0FC4FF0E023D3F8F03D13F0010F98
:104A30003FF469AF00BE66E79DF8081001F07F0003
:104A4000CC093C4B03EB400303EBD11393F8342028
:104A50006FF3000283F8342093F834206FF382025E
:104A600083F83420A8B1334B03EB400323441A7D71
:104A7000354B1B789A4214D2344B1B6803EB42131C
:104A8000BBB19C69039B9DF809209DF80400A047D9
:104A900043E7039B9DF809209DF8040000F01EF9F0
:104AA0003BE7581C904204DBD21A294B03EB42131C
:104AB000E6E740F2812222492248FEF763FC4FF0EC
:104AC000E023D3F8F03D13F0010F3FF41CAF00BE1C
:104AD00019E7184B1B7813F0010F3FF41EAF154B6D
:104AE0001878C0F3C000FFF72DFB16E7114B1B78B9
:104AF00013F0010F3FF411AFFFF725FB0DE7029B09
:104B0000002B3FF40AAF0398984706E7094BDB7880
:104B100013F0010F3FF401AF0298FFF790FAFCE6A3
:104B20004FF0E023D3F8F03D13F0010F3FF4F5AE62
:104B300000BEF2E63017002088170020DB1F00209F
:104B40000075001044740010D91F0020E4130020E9
:104B500010750010F8B50746134B9E89DD89741B4C
:104B6000A4B2402C28BF402493F90030002B08DB6E
:104B70000021AE4213D00D4A23463846FFF728FCE9
:104B8000F8BDAE4209D0084B9968402C09D822469E
:104B9000064801F0D1FC8021EBE78021E9E7002203
:104BA000EAE70020ECE700BFB4160020F016002072
:104BB00008B586460B460A4A944608684968ACE838
:104BC000030000219160D181918193F900308B42E3
:104BD00000DB802100231A467046FFF7F9FB08BD71
:104BE000B416002038B505468C462A4CA6460868FF
:104BF0004968AEE80300A2600021E181BCF806101C
:104C00008B4228BF0B46A381BCF8061029B303B121
:104C100032B12846FFF79EFF044680B1204638BDDA
:104C200077221D491D48FEF7ADFB4FF0E023D3F876
:104C3000F03D13F0010F00D000BE0024EEE77D220E
:104C400015491648FEF79EFB4FF0E023D3F8F03DE0
:104C500013F0010FE2D000BEE0E79CF90030002B1A
:104C600016DB802100231A462846FFF7B1FB0446D5
:104C70000028D3D1802208490848FEF783FB4FF073
:104C8000E023D3F8F03D13F0010FC7D000BEC5E715
:104C90000021E7E7B4160020687500104474001086
:104CA000034B00221A605A609A60DA601A617047FA
:104CB000B4160020014B1861704700BFB4160020E5
:104CC0000146054B1A460068496803C200229A60F3
:104CD000DA819A81704700BFB416002038B50546C6
:104CE0001C46424B1B78DB09B3EBD11F1CD07CB1B7
:104CF000A7223F493F48FEF745FB4FF0E023D3F89A
:104D0000F03D13F0010F00D000BE0024204638BD56
:104D1000364C2146FEF780FF23691BB12246032152
:104D2000284698470124F1E7304B93F90030002BD7
:104D300007DB2E4B9868002855D022462E4901F0FB
:104D4000FBFB2A4AD38913FA84F39BB2D38191687F
:104D500021449160D288934201D03F2C2FD8234B1D
:104D60001B6923B1214A022128469847E8B11F4B0D
:104D700093F90030002B16DB802100231A462846C9
:104D8000FFF726FB04460028C0D1D0221849194855
:104D9000FEF7F8FA4FF0E023D3F8F03D13F0010FDF
:104DA000B4D000BEB2E70021E7E700212846FEF7B5
:104DB00079FF80212846FEF775FF0124A6E72846E3
:104DC000FFF7C8FE04460028A0D1D82208490948A8
:104DD000FEF7D8FA4FF0E023D3F8F03D13F0010FBF
:104DE00094D000BE92E7002490E700BFB4160020E4
:104DF0005075001044740010F016002038B50446B9
:104E0000FFF7A2F930B90023184613B1E37843B98C
:104E1000002038BDFFF7A0F908B90123F4E700230B
:104E2000F2E704F11005284601F034F93F2801D8D3
:104E30000020EEE7E1780020FFF7A2FA0028E8D092
:104E4000284601F027F93F2807D9402304F51272BC
:104E5000E1780020FFF7BCFADBE7E1780020FFF7FC
:104E6000A3FA0020D5E7000010B50446FFF76CF95F
:104E700060B900238BB10B484FF4327303FB04007D
:104E8000037913F0010F0AD0012007E0FFF764F95E
:104E900008B90123EEE70023ECE7002010BD002055
:104EA000FCE700BFEC13002008B54FF4327303FB9E
:104EB00000F01030024B184401F0BBF808BD00BFF1
:104EC000EC13002038B50C4B4FF4327404FB00F0A7
:104ED0001D18103018444FF6FE739A4208D892B24B
:104EE00001F00DF904462846FFF788FF204638BD3B
:104EF0004FF6FF72F4E700BFEC13002070B50546D3
:104F0000FFF722F918B9002343B9002070BDFFF75D
:104F100023F908B90123F7E70023F5E74FF43273CB
:104F200005FB03F32033264C1C440434204601F0D7
:104F300080F808B90020E9E7214B4FF4327202FBF8
:104F4000053399780020FFF71BFA08B90020DDE748
:104F50004FF4327305FB03F303F52273184E1E441E
:104F600040223146204601F0CAF80446E0B1144818
:104F70004FF4327303FB050023463246817800204C
:104F8000FFF726FA08B12046C0E7CD220D490E48AA
:104F9000FEF7F8F94FF0E023D3F8F03D13F0010FDE
:104FA00000D000BE0020B1E705484FF4327303FB88
:104FB000050081780020FFF7F7F90020A6E700BF81
:104FC000EC130020987500104474001070B505466D
:104FD0004FF4327400FB04F404F120030C4C1C4425
:104FE00004344FF6FE739A420BD892B2204601F079
:104FF000BAF80646204601F01CF83F2804D830468F
:1050000070BD4FF6FF72F1E72846FFF777FFF6E72E
:10501000EC13002008B54FF4327303FB00F020308E
:10502000024B1844043001F035F808BDEC130020A1
:105030002DE9F04383B04FF432720021264801F08D
:10504000F1FA0025254B1D7015B103B0BDE8F083C2
:10505000214E4FF4327405FB04F43719FF237B71A2
:105060004FF4E133BB604FF0000887F80C8087F8FD
:105070000D800823BB7304F1380104F11000CDF852
:10508000008001234FF480723144304400F0A0FFCF
:1050900004F59C7104F120003044012300934FF487
:1050A00080723144043000F093FF04F50E79B1446E
:1050B0004846FBF77BFE04F5107434442046FBF7AA
:1050C00075FEC7F81C80C7F820903C63C7F8348091
:1050D0000135EDB2B8E700BFEC130020E813002063
:1050E00000230BB10120704710B49C46104A4FF4C6
:1050F000327101FB0322116A146B39B10C494FF470
:10510000327202FB03110020C86108623CB1084AF8
:105110004FF4327101FB0C22002111635163013302
:10512000DBB2002BE1D001205DF8044B704700BFDB
:10513000EC13002038B5002404B138BD25461B49C6
:105140004FF4327304FB03F3C8180022CA500271F3
:10515000174B1B7813F0010F12D0154B1B7813F06F
:10516000020F17D04FF4327005FB00F020300F4DC6
:1051700028440121043001F016F80134E4B2DBE7E1
:105180004FF4327304FB03F310330846184400F065
:10519000EFFFE2E74FF4327005FB00F02030034BE5
:1051A0001844043000F0E4FFDCE700BFEC130020FB
:1051B000E8130020F0B583B04B79022B7ED1064670
:1051C0008B79022B7ED100233BB10027A7B18B78CE
:1051D0003B700D780D44092422E01D463A484FF4F7
:1051E000327404FB0300807810B10133DBB2EBE7CB
:1051F000354F04FB0577E9E74FF49A723349344899
:10520000FEF7C0F84FF0E023D3F8F03D13F0010FA4
:1052100000D000BE002452E02B781C44A4B21D44F0
:105220006B78242B01D19442F6D9052B09D06B78E9
:10523000042B02D16B790A2B1FD03846FFF7DEFD15
:105240003DE029463046FFF70BF830B1AB787B7074
:105250002B781C44A4B21D44E9E74FF4A3721B4908
:105260001B48FEF78FF84FF0E023D3F8F03D13F022
:10527000010F00D000BE002421E029780C44A4B224
:10528000BB1C0193FB1C009302231A4629443046A1
:10529000FFF724F810B10E34A4B2CEE740F2551255
:1052A0000A490B48FEF76EF84FF0E023D3F8F03DC3
:1052B00013F0010F00D000BE002400E000242046BF
:1052C00003B0F0BD0024FAE7EC1300208C75001049
:1052D00044740010137803F06003202B72D170B572
:1052E00094463E4A0024002C6ED192F800E0BCF8AF
:1052F00004309E4504D00134E4B202F53272F2E784
:105300009CF80130203B032B60D8DFE803F0021942
:105310002447012903D0032908D0012055E00723A1
:1053200008326146FFF75EFC01204EE02C4B002B5B
:105330004ED002F108012046FEF7A2F8012044E019
:10534000012901D0012040E0072308326146FFF720
:1053500049FC012039E0012903D0032906D00120AE
:1053600033E06146FFF724FC01202EE0BCF8023058
:1053700013F001010D46C3F3400613710CBF012168
:10538000002102F1240000F00EFF164B13B3324649
:105390002946204600E000BF012016E0012903D085
:1053A000032906D0012010E06146FFF701FC01202F
:1053B0000BE00D4B83B1BCF80210204600E000BFAB
:1053C000012002E000207047002070BD0020FCE7B3
:1053D0000120FAE70120F8E70120F6E7EC130020AE
:1053E0008134001000000000000000002DE9F047AB
:1053F00007460E469946002454B1BCB9EB78B34237
:1054000024D0AB78B34255D001242046BDE8F087C4
:105410003E4D4FF4327303FB0455EB78B342ECD0AE
:10542000AB78B342E9D00134E4B2E5E740F2B5121B
:1054300037493848FDF7A6FF4FF0E023D3F8F03D99
:1054400013F0010F00D000BE0024DEE705F1100AC2
:105450001FFA89F205F51271504600F084FE2E4BBA
:10546000D3B16B79FF2B17D04FF0000801E008F1A2
:105470000108C84510D26A7905EB080393F8483251
:105480009A42F4D1504600F0E8FD0028EFD1697946
:10549000204600E000BFEAE7204B1BB1504600F079
:1054A000DCFD18B12846FFF7A9FCAAE7204600E07A
:1054B00000BFF7E71A4B13B1204600E000BF2046BB
:1054C000FFF71CFD08B101249FE705F1240000F05F
:1054D000B0FDB0B9B9F1000F15D019F03F0F01D0F0
:1054E000012492E7A9783846FEF74AFF044608B936
:1054F00001248AE700231A46A9783846FEF768FF98
:1055000083E7012481E701247FE700BFEC1300203B
:105510007C750010447400100000000000000000C2
:105520000000000098B90B4B4FF4337101FB0033BE
:1055300093F8A9313BB9074B01FB003292F8853053
:105540001BB10120704701207047002070470020E8
:10555000704700BF4C18002008B10020704708B504
:1055600001464FF4337303FB01F18031024B1944C0
:10557000043100F0E5FA08BD4C1800202DE9F04197
:1055800084B04FF4337200211E4801F04BF800261E
:1055900016B104B0BDE8F0811A4D4FF4337406FB28
:1055A00004F404F5E4732B4404332A19043204F59B
:1055B000D4704FF04008CDF80C8002924FF4807701
:1055C0000197009300231A461946284400F043FA35
:1055D00004F1A0032B44083304EB08022A440432EC
:1055E00004F180002844CDF80C80029201970093CA
:1055F000002301221946043000F02DFA0136F6B2DC
:10560000C6E700BF4C18002070B500240CB1012083
:1056100070BD094E4FF4337504FB05F505F5D470E4
:10562000304400F043FA80353544281D00F03EFA3E
:105630000134E4B2EAE700BF4C18002070B5002442
:1056400004B170BD094E4FF4337504FB05F500231A
:10565000735505F5D870304400F08AFD883535441F
:10566000281D00F085FD0134E4B2E9E74C18002064
:105670004B79FF2B40F097802DE9F0478146884613
:105680000C780C44A518002646B10026002E00F028
:105690008C8098F80230337000273EE03046FFF7E8
:1056A00041FF10B10136F6B2EEE7414B4FF43372D1
:1056B00002FB0636EAE723781C446378052B01D009
:1056C000AC42F8D3AC422CD221464846FEF7C8FD86
:1056D00060B30137FFB2A378DB0936D106F5D47A7F
:1056E00006F5D87000F044FDA37886F8A931A388A8
:1056F000C3F30A03B3F5007F14BF0023012396F818
:10570000A82163F3410286F8A8215146484600F0DB
:1057100063FA002838D023781C4498F80430BB4240
:10572000CBD8A4EB080080B2BDE8F087DA2221498B
:105730002148FDF727FE4FF0E023D3F8F03D13F0AA
:10574000010F00D000BE0020EEE706F18C0000F053
:105750000FFDA37886F88530A388C3F30A03B3F559
:10576000007F14BF0023012396F8842063F34102D5
:1057700086F884200E48301A8010104B03FB00F08E
:10578000C0B2FFF7E9FEC6E7E2220A490A48FDF780
:10579000F9FD4FF0E023D3F8F03D13F0010F00D0F6
:1057A00000BE0020C0E7002070470020BCE700BF1B
:1057B0004C180020B0750010447400107BAE62D904
:1057C000F8B505461E46244F0024002C42D197F818
:1057D000A9318B4208D097F885208A4204D0013441
:1057E000E4B207F53377F0E78B4205D097F88530C0
:1057F0008B421AD001202EE0B7F8B4316BB9174BA9
:1058000023B1B2B2391D204600E000BF07F5D471C4
:10581000284600F0E1F901201DE0B2B2D7F8AC1142
:1058200007F5D87000F09FFCE9E70D4B1BB1B1B252
:10583000204600E000BF84373946284600F080F952
:1058400008B1012007E032463946284600F030F919
:10585000012000E00020F8BD4C18002000000000EE
:105860000000000010B50020FEF786FC044608B1D9
:10587000204610BD312206490648FDF783FD4FF052
:10588000E023D3F8F03D13F0010FF1D000BEEFE7B5
:10589000307600104474001070B5037813F00104E2
:1058A00021D105460E46037813F0040F1CD14FF0AA
:1058B000FF31304600F060FF2B7813F0010F05D167
:1058C0002B7813F0040F0CD0002300E000231C46BB
:1058D0001BB12B7843F004032B70304600F034FFEB
:1058E00002E00123F3E70024204670BD70B50446B2
:1058F0000D464FF0FF31284600F03EFF237813F0AD
:10590000040F0BD100231E461BB123786FF38203D3
:105910002370284600F018FF304670BD237813F03E
:10592000010F01D00023EEE70123ECE708B58388DF
:10593000C3F30A02C37803F00303022B1FD0032B27
:1059400046D0012B01D0002008BD022905D040F22D
:10595000FF33934204D30120F6E74FF48063F8E766
:10596000902228492848FDF70DFD4FF0E023D3F899
:10597000F03D13F0010F00D000BE0020E4E7022943
:1059800003D0402A15D80120DEE7B2F5007F01D10F
:105990000120D9E797221B491B48FDF7F3FC4FF084
:1059A000E023D3F8F03D13F0010F00D000BE00203B
:1059B000CAE79A2213491448FDF7E4FC4FF0E023AC
:1059C000D3F8F03D13F0010F00D000BE0020BBE77C
:1059D000022904D04023934204D30120B4E74FF4BA
:1059E0008063F8E7A02207490748FDF7CBFC4FF09A
:1059F000E023D3F8F03D13F0010F00D000BE0020EB
:105A0000A2E700BF1C760010447400100A4404E0B2
:105A10005DF804FB91F800C0614491421AD291F8FC
:105A200001C0BCF1050FF5D100B591F802C00CF032
:105A30007F0E00EB4E0E4FEADC1C0EF80C3091F896
:105A400000C061449142E3D291F801C0BCF1050F5E
:105A5000F5D1EAE77047F0B583B004461746089DD4
:105A6000BDF8246090F800C061F3000C00F808CB8A
:105A7000009301233246294600F0AAFA05B13EB947
:105A80000A9B6360BDF82C306380012003B0F0BD39
:105A900004F11C052846FBF789F92FB12B4607B105
:105AA00000256361A561EBE70023F8E7012070475B
:105AB000F8B506460C4615460B7813F0020F10D0C9
:105AC0004FF4007704F1080000F0B3FA68BB75B337
:105AD000013F2F422DD1237813F0010F03D0002076
